{
  "contractName": "SalaryPaymentSystem",
  "abi": [
    {
      "inputs": [],
      "stateMutability": "nonpayable",
      "type": "constructor"
    },
    {
      "anonymous": false,
      "inputs": [
        {
          "indexed": true,
          "internalType": "address",
          "name": "employee",
          "type": "address"
        },
        {
          "indexed": false,
          "internalType": "uint256",
          "name": "salary",
          "type": "uint256"
        }
      ],
      "name": "EmployeeRegistered",
      "type": "event"
    },
    {
      "anonymous": false,
      "inputs": [
        {
          "indexed": true,
          "internalType": "address",
          "name": "employee",
          "type": "address"
        },
        {
          "indexed": false,
          "internalType": "uint256",
          "name": "amount",
          "type": "uint256"
        }
      ],
      "name": "SalaryPaid",
      "type": "event"
    },
    {
      "anonymous": false,
      "inputs": [
        {
          "indexed": true,
          "internalType": "address",
          "name": "employee",
          "type": "address"
        },
        {
          "indexed": false,
          "internalType": "uint256",
          "name": "newSalary",
          "type": "uint256"
        }
      ],
      "name": "SalaryUpdated",
      "type": "event"
    },
    {
      "inputs": [
        {
          "internalType": "uint256",
          "name": "",
          "type": "uint256"
        }
      ],
      "name": "employeeAddresses",
      "outputs": [
        {
          "internalType": "address",
          "name": "",
          "type": "address"
        }
      ],
      "stateMutability": "view",
      "type": "function"
    },
    {
      "inputs": [
        {
          "internalType": "address",
          "name": "",
          "type": "address"
        }
      ],
      "name": "employees",
      "outputs": [
        {
          "internalType": "address",
          "name": "employeeAddress",
          "type": "address"
        },
        {
          "internalType": "uint256",
          "name": "salary",
          "type": "uint256"
        },
        {
          "internalType": "uint256",
          "name": "lastPaidDate",
          "type": "uint256"
        }
      ],
      "stateMutability": "view",
      "type": "function"
    },
    {
      "inputs": [],
      "name": "nextSalaryDate",
      "outputs": [
        {
          "internalType": "uint256",
          "name": "",
          "type": "uint256"
        }
      ],
      "stateMutability": "view",
      "type": "function"
    },
    {
      "inputs": [],
      "name": "owner",
      "outputs": [
        {
          "internalType": "address",
          "name": "",
          "type": "address"
        }
      ],
      "stateMutability": "view",
      "type": "function"
    },
    {
      "inputs": [],
      "name": "totalBalance",
      "outputs": [
        {
          "internalType": "uint256",
          "name": "",
          "type": "uint256"
        }
      ],
      "stateMutability": "view",
      "type": "function"
    },
    {
      "inputs": [],
      "name": "depositFunds",
      "outputs": [],
      "stateMutability": "payable",
      "type": "function"
    },
    {
      "inputs": [
        {
          "internalType": "address",
          "name": "_employeeAddress",
          "type": "address"
        },
        {
          "internalType": "uint256",
          "name": "_salary",
          "type": "uint256"
        }
      ],
      "name": "registerEmployee",
      "outputs": [],
      "stateMutability": "nonpayable",
      "type": "function"
    },
    {
      "inputs": [],
      "name": "checkBalance",
      "outputs": [
        {
          "internalType": "uint256",
          "name": "",
          "type": "uint256"
        }
      ],
      "stateMutability": "view",
      "type": "function"
    },
    {
      "inputs": [],
      "name": "paySalaries",
      "outputs": [],
      "stateMutability": "nonpayable",
      "type": "function"
    },
    {
      "inputs": [
        {
          "internalType": "address",
          "name": "_employeeAddress",
          "type": "address"
        },
        {
          "internalType": "uint256",
          "name": "_newSalary",
          "type": "uint256"
        }
      ],
      "name": "updateEmployeeSalary",
      "outputs": [],
      "stateMutability": "nonpayable",
      "type": "function"
    }
  ],
  "bytecode": "0x608060405234801561000f575f80fd5b50335f806101000a81548173ffffffffffffffffffffffffffffffffffffffff021916908373ffffffffffffffffffffffffffffffffffffffff16021790555042600281905550611412806100635f395ff3fe608060405260043610610090575f3560e01c8063c71daccb11610058578063c71daccb14610164578063ca6828971461018e578063d0678947146101b6578063e2c41dbc146101f4578063ec34ece8146101fe57610090565b806342e36b3b146100945780637521720b146100aa578063820ef194146100e65780638da5cb5b14610110578063ad7a672f1461013a575b5f80fd5b34801561009f575f80fd5b506100a8610226565b005b3480156100b5575f80fd5b506100d060048036038101906100cb9190610d84565b6104ec565b6040516100dd9190610dee565b60405180910390f35b3480156100f1575f80fd5b506100fa610527565b6040516101079190610e16565b60405180910390f35b34801561011b575f80fd5b5061012461052d565b6040516101319190610dee565b60405180910390f35b348015610145575f80fd5b5061014e610550565b60405161015b9190610e16565b60405180910390f35b34801561016f575f80fd5b50610178610556565b6040516101859190610e16565b60405180910390f35b348015610199575f80fd5b506101b460048036038101906101af9190610e59565b610669565b005b3480156101c1575f80fd5b506101dc60048036038101906101d79190610e97565b6109ed565b6040516101eb93929190610ec2565b60405180910390f35b6101fc610a32565b005b348015610209575f80fd5b50610224600480360381019061021f9190610e59565b610b1b565b005b5f8054906101000a900473ffffffffffffffffffffffffffffffffffffffff1673ffffffffffffffffffffffffffffffffffffffff163373ffffffffffffffffffffffffffffffffffffffff16146102b3576040517f08c379a00000000000000000000000000000000000000000000000000000000081526004016102aa90610f51565b60405180910390fd5b6002544210156102f8576040517f08c379a00000000000000000000000000000000000000000000000000000000081526004016102ef90610fb9565b60405180910390fd5b5f5b6003805490508110156104d4575f6003828154811061031c5761031b610fd7565b5b905f5260205f20015f9054906101000a900473ffffffffffffffffffffffffffffffffffffffff1690505f60045f8373ffffffffffffffffffffffffffffffffffffffff1673ffffffffffffffffffffffffffffffffffffffff1681526020019081526020015f206001015490505f73ffffffffffffffffffffffffffffffffffffffff168273ffffffffffffffffffffffffffffffffffffffff16141580156103c557505f81115b156104bf575f8190508060015f8282546103df9190611031565b925050819055504260045f8573ffffffffffffffffffffffffffffffffffffffff1673ffffffffffffffffffffffffffffffffffffffff1681526020019081526020015f20600201819055508273ffffffffffffffffffffffffffffffffffffffff166108fc8290811502906040515f60405180830381858888f1935050505015801561046e573d5f803e3d5ffd5b508273ffffffffffffffffffffffffffffffffffffffff167fc0ebfa40c6c89654e46d7c5b0b0c1f8b5d1c65d6612894126714a7b1d6db9a38826040516104b59190610e16565b60405180910390a2505b505080806104cc90611064565b9150506102fa565b5062278d00426104e491906110ab565b600281905550565b600381815481106104fb575f80fd5b905f5260205f20015f915054906101000a900473ffffffffffffffffffffffffffffffffffffffff1681565b60025481565b5f8054906101000a900473ffffffffffffffffffffffffffffffffffffffff1681565b60015481565b5f3373ffffffffffffffffffffffffffffffffffffffff1660045f3373ffffffffffffffffffffffffffffffffffffffff1673ffffffffffffffffffffffffffffffffffffffff1681526020019081526020015f205f015f9054906101000a900473ffffffffffffffffffffffffffffffffffffffff1673ffffffffffffffffffffffffffffffffffffffff1614610623576040517f08c379a000000000000000000000000000000000000000000000000000000000815260040161061a90611128565b60405180910390fd5b60045f3373ffffffffffffffffffffffffffffffffffffffff1673ffffffffffffffffffffffffffffffffffffffff1681526020019081526020015f2060010154905090565b5f8054906101000a900473ffffffffffffffffffffffffffffffffffffffff1673ffffffffffffffffffffffffffffffffffffffff163373ffffffffffffffffffffffffffffffffffffffff16146106f6576040517f08c379a00000000000000000000000000000000000000000000000000000000081526004016106ed90610f51565b60405180910390fd5b5f73ffffffffffffffffffffffffffffffffffffffff168273ffffffffffffffffffffffffffffffffffffffff1603610764576040517f08c379a000000000000000000000000000000000000000000000000000000000815260040161075b90611190565b60405180910390fd5b5f81116107a6576040517f08c379a000000000000000000000000000000000000000000000000000000000815260040161079d906111f8565b60405180910390fd5b5f73ffffffffffffffffffffffffffffffffffffffff1660045f8473ffffffffffffffffffffffffffffffffffffffff1673ffffffffffffffffffffffffffffffffffffffff1681526020019081526020015f205f015f9054906101000a900473ffffffffffffffffffffffffffffffffffffffff1673ffffffffffffffffffffffffffffffffffffffff1614610872576040517f08c379a000000000000000000000000000000000000000000000000000000000815260040161086990611260565b60405180910390fd5b60405180606001604052808373ffffffffffffffffffffffffffffffffffffffff1681526020018281526020014281525060045f8473ffffffffffffffffffffffffffffffffffffffff1673ffffffffffffffffffffffffffffffffffffffff1681526020019081526020015f205f820151815f015f6101000a81548173ffffffffffffffffffffffffffffffffffffffff021916908373ffffffffffffffffffffffffffffffffffffffff1602179055506020820151816001015560408201518160020155905050600382908060018154018082558091505060019003905f5260205f20015f9091909190916101000a81548173ffffffffffffffffffffffffffffffffffffffff021916908373ffffffffffffffffffffffffffffffffffffffff1602179055508173ffffffffffffffffffffffffffffffffffffffff167f8235117616296a5606417b9a4405cbbdc80ae25e515ca1d48fc665c0b6ba66af826040516109e19190610e16565b60405180910390a25050565b6004602052805f5260405f205f91509050805f015f9054906101000a900473ffffffffffffffffffffffffffffffffffffffff16908060010154908060020154905083565b5f8054906101000a900473ffffffffffffffffffffffffffffffffffffffff1673ffffffffffffffffffffffffffffffffffffffff163373ffffffffffffffffffffffffffffffffffffffff1614610abf576040517f08c379a0000000000000000000000000000000000000000000000000000000008152600401610ab690610f51565b60405180910390fd5b5f3411610b01576040517f08c379a0000000000000000000000000000000000000000000000000000000008152600401610af8906112c8565b60405180910390fd5b3460015f828254610b1291906110ab565b92505081905550565b5f8054906101000a900473ffffffffffffffffffffffffffffffffffffffff1673ffffffffffffffffffffffffffffffffffffffff163373ffffffffffffffffffffffffffffffffffffffff1614610ba8576040517f08c379a0000000000000000000000000000000000000000000000000000000008152600401610b9f90610f51565b60405180910390fd5b8173ffffffffffffffffffffffffffffffffffffffff1660045f8473ffffffffffffffffffffffffffffffffffffffff1673ffffffffffffffffffffffffffffffffffffffff1681526020019081526020015f205f015f9054906101000a900473ffffffffffffffffffffffffffffffffffffffff1673ffffffffffffffffffffffffffffffffffffffff1614610c74576040517f08c379a0000000000000000000000000000000000000000000000000000000008152600401610c6b90611330565b60405180910390fd5b5f8111610cb6576040517f08c379a0000000000000000000000000000000000000000000000000000000008152600401610cad906113be565b60405180910390fd5b8060045f8473ffffffffffffffffffffffffffffffffffffffff1673ffffffffffffffffffffffffffffffffffffffff1681526020019081526020015f20600101819055508173ffffffffffffffffffffffffffffffffffffffff167f39c3368b1934e984226bc34399cbcdf6cfaf6f59eaf71a3d43a6fe9e9cc71e0882604051610d419190610e16565b60405180910390a25050565b5f80fd5b5f819050919050565b610d6381610d51565b8114610d6d575f80fd5b50565b5f81359050610d7e81610d5a565b92915050565b5f60208284031215610d9957610d98610d4d565b5b5f610da684828501610d70565b91505092915050565b5f73ffffffffffffffffffffffffffffffffffffffff82169050919050565b5f610dd882610daf565b9050919050565b610de881610dce565b82525050565b5f602082019050610e015f830184610ddf565b92915050565b610e1081610d51565b82525050565b5f602082019050610e295f830184610e07565b92915050565b610e3881610dce565b8114610e42575f80fd5b50565b5f81359050610e5381610e2f565b92915050565b5f8060408385031215610e6f57610e6e610d4d565b5b5f610e7c85828601610e45565b9250506020610e8d85828601610d70565b9150509250929050565b5f60208284031215610eac57610eab610d4d565b5b5f610eb984828501610e45565b91505092915050565b5f606082019050610ed55f830186610ddf565b610ee26020830185610e07565b610eef6040830184610e07565b949350505050565b5f82825260208201905092915050565b7f596f7520617265206e6f7420746865206f776e657200000000000000000000005f82015250565b5f610f3b601583610ef7565b9150610f4682610f07565b602082019050919050565b5f6020820190508181035f830152610f6881610f2f565b9050919050565b7f49742773206e6f742070617964617920796574000000000000000000000000005f82015250565b5f610fa3601383610ef7565b9150610fae82610f6f565b602082019050919050565b5f6020820190508181035f830152610fd081610f97565b9050919050565b7f4e487b71000000000000000000000000000000000000000000000000000000005f52603260045260245ffd5b7f4e487b71000000000000000000000000000000000000000000000000000000005f52601160045260245ffd5b5f61103b82610d51565b915061104683610d51565b925082820390508181111561105e5761105d611004565b5b92915050565b5f61106e82610d51565b91507fffffffffffffffffffffffffffffffffffffffffffffffffffffffffffffffff82036110a05761109f611004565b5b600182019050919050565b5f6110b582610d51565b91506110c083610d51565b92508282019050808211156110d8576110d7611004565b5b92915050565b7f596f7520617265206e6f7420616e20656d706c6f7965650000000000000000005f82015250565b5f611112601783610ef7565b915061111d826110de565b602082019050919050565b5f6020820190508181035f83015261113f81611106565b9050919050565b7f496e76616c696420656d706c6f796565206164647265737300000000000000005f82015250565b5f61117a601883610ef7565b915061118582611146565b602082019050919050565b5f6020820190508181035f8301526111a78161116e565b9050919050565b7f53616c617279206d7573742062652067726561746572207468616e20300000005f82015250565b5f6111e2601d83610ef7565b91506111ed826111ae565b602082019050919050565b5f6020820190508181035f83015261120f816111d6565b9050919050565b7f456d706c6f79656520616c7265616479207265676973746572656400000000005f82015250565b5f61124a601b83610ef7565b915061125582611216565b602082019050919050565b5f6020820190508181035f8301526112778161123e565b9050919050565b7f416d6f756e742073686f756c642062652067726561746572207468616e2030005f82015250565b5f6112b2601f83610ef7565b91506112bd8261127e565b602082019050919050565b5f6020820190508181035f8301526112df816112a6565b9050919050565b7f456d706c6f796565206e6f7420666f756e6400000000000000000000000000005f82015250565b5f61131a601283610ef7565b9150611325826112e6565b602082019050919050565b5f6020820190508181035f8301526113478161130e565b9050919050565b7f4e65772073616c617279206d7573742062652067726561746572207468616e205f8201527f3000000000000000000000000000000000000000000000000000000000000000602082015250565b5f6113a8602183610ef7565b91506113b38261134e565b604082019050919050565b5f6020820190508181035f8301526113d58161139c565b905091905056fea2646970667358221220b67080e0dddc72e675c78f3ed469e2db80ce153c854c55e4e4189217e1ee861a64736f6c63430008150033",
  "immutableReferences": {},
  "source": "// SPDX-License-Identifier: MIT\r\npragma solidity ^0.8.0;\r\n\r\ncontract SalaryPaymentSystem {\r\n    address public owner;\r\n    uint public totalBalance;\r\n    uint public nextSalaryDate;\r\n\r\n    address[] public employeeAddresses; // Dynamic array of employee addresses\r\n\r\n    struct Employee {\r\n        address employeeAddress;\r\n        uint salary;\r\n        uint lastPaidDate;\r\n    }\r\n\r\n    mapping(address => Employee) public employees;\r\n\r\n    event EmployeeRegistered(address indexed employee, uint salary);\r\n    event SalaryPaid(address indexed employee, uint amount);\r\n    event SalaryUpdated(address indexed employee, uint newSalary);\r\n\r\n    modifier onlyOwner {\r\n        require(msg.sender == owner, \"You are not the owner\");\r\n        _;\r\n    }\r\n\r\n    modifier onlyEmployee {\r\n        require(employees[msg.sender].employeeAddress == msg.sender, \"You are not an employee\");\r\n        _;\r\n    }\r\n\r\n    constructor() {\r\n        owner = msg.sender;\r\n        nextSalaryDate = block.timestamp;\r\n    }\r\n\r\n    function depositFunds() public payable onlyOwner {\r\n        require(msg.value > 0, \"Amount should be greater than 0\");\r\n        totalBalance += msg.value;\r\n    }\r\n\r\n    function registerEmployee(address _employeeAddress, uint _salary) public onlyOwner {\r\n        require(_employeeAddress != address(0), \"Invalid employee address\");\r\n        require(_salary > 0, \"Salary must be greater than 0\");\r\n        require(employees[_employeeAddress].employeeAddress == address(0), \"Employee already registered\");\r\n\r\n        employees[_employeeAddress] = Employee({\r\n            employeeAddress: _employeeAddress,\r\n            salary: _salary,\r\n            lastPaidDate: block.timestamp\r\n        });\r\n\r\n        employeeAddresses.push(_employeeAddress); // Add the employee's address to the dynamic array\r\n\r\n        emit EmployeeRegistered(_employeeAddress, _salary);\r\n    }\r\n\r\n    function checkBalance() public view onlyEmployee returns (uint) {\r\n        return employees[msg.sender].salary;\r\n    }\r\n\r\n    function paySalaries() public onlyOwner {\r\n        require(block.timestamp >= nextSalaryDate, \"It's not payday yet\");\r\n\r\n        for (uint i = 0; i < employeeAddresses.length; i++) {\r\n            address employeeAddress = employeeAddresses[i];\r\n            uint salary = employees[employeeAddress].salary;\r\n\r\n            if (employeeAddress != address(0) && salary > 0) {\r\n                uint amountToPay = salary;\r\n                totalBalance -= amountToPay;\r\n                employees[employeeAddress].lastPaidDate = block.timestamp;\r\n                payable(employeeAddress).transfer(amountToPay);\r\n                emit SalaryPaid(employeeAddress, amountToPay);\r\n            }\r\n        }\r\n\r\n        nextSalaryDate = block.timestamp + 30 days; // Pay salaries every 30 days\r\n    }\r\n\r\n    function updateEmployeeSalary(address _employeeAddress, uint _newSalary) public onlyOwner {\r\n        require(employees[_employeeAddress].employeeAddress == _employeeAddress, \"Employee not found\");\r\n        require(_newSalary > 0, \"New salary must be greater than 0\");\r\n\r\n        employees[_employeeAddress].salary = _newSalary;\r\n\r\n        emit SalaryUpdated(_employeeAddress, _newSalary);\r\n    }\r\n}",
  "sourcePath": "D:\\sps\\contracts\\sps.sol",
  "compiler": {
    "name": "solc",
    "version": "0.8.21+commit.d9974bed.Emscripten.clang"
  },
  "schemaVersion": "3.4.16",
  "updatedAt": "2023-10-25T17:14:26.628Z",
  "devdoc": {
    "kind": "dev",
    "methods": {},
    "version": 1
  },
  "userdoc": {
    "kind": "user",
    "methods": {},
    "version": 1
  }
}